{
  "contractName": "MyContract",
  "abi": [
    {
      "constant": true,
      "inputs": [],
      "name": "owner",
      "outputs": [
        {
          "name": "",
          "type": "address"
        }
      ],
      "payable": false,
      "stateMutability": "view",
      "type": "function"
    },
    {
      "inputs": [],
      "payable": false,
      "stateMutability": "nonpayable",
      "type": "constructor"
    },
    {
      "constant": true,
      "inputs": [
        {
          "name": "reveal",
          "type": "uint256"
        }
      ],
      "name": "getCommit",
      "outputs": [
        {
          "name": "",
          "type": "uint256"
        }
      ],
      "payable": false,
      "stateMutability": "pure",
      "type": "function"
    }
  ],
  "bytecode": "0x608060405234801561001057600080fd5b50336000806101000a81548173ffffffffffffffffffffffffffffffffffffffff021916908373ffffffffffffffffffffffffffffffffffffffff1602179055506101c9806100606000396000f30060806040526004361061004c576000357c0100000000000000000000000000000000000000000000000000000000900463ffffffff1680638da5cb5b14610051578063fcdbb8af146100a8575b600080fd5b34801561005d57600080fd5b506100666100e9565b604051808273ffffffffffffffffffffffffffffffffffffffff1673ffffffffffffffffffffffffffffffffffffffff16815260200191505060405180910390f35b3480156100b457600080fd5b506100d36004803603810190808035906020019092919050505061010e565b6040518082815260200191505060405180910390f35b6000809054906101000a900473ffffffffffffffffffffffffffffffffffffffff1681565b600081604051602001808281526020019150506040516020818303038152906040526040518082805190602001908083835b6020831015156101655780518252602082019150602081019050602083039250610140565b6001836020036101000a03801982511681845116808217855250505050505090500191505060405180910390206001900490509190505600a165627a7a7230582071b8f6f2488c7987ddd7f7bd1ecf430bec0aff7bfa51b03157bef377a8c477ec0029",
  "source": "pragma solidity ^0.4.19;\n\ncontract MyContract {\n    uint constant MAX_BET = 0.01 ether;\n    uint constant MAX_AMOUNT = 300000 ether;\n\n    // Standard contract ownership transfer.\n    address public owner;\n\n    constructor() public {\n        owner = msg.sender;\n    }\n\n    function getCommit(uint reveal) public pure returns (uint) {\n        return uint(keccak256(abi.encodePacked(reveal)));\n    }\n}\n",
  "sourcePath": "/Users/xiongzhend/Documents/dapps/mycontract/contracts/MyContract.sol",
  "compiler": {
    "name": "solc",
    "version": "0.4.25+commit.59dbf8f1.Emscripten.clang"
  },
  "schemaVersion": "2.0.2",
  "updatedAt": "2019-03-29T02:50:18.476Z"
}